:100000002020002025010000210100002101000026
:1000100000000000000000000000000000000000E0
:1000200000000000000000000000000021010000AE
:10003000000000000000000021010000210100007C
:100040002101000021010000210100002101000028
:100050002101000021010000210100002101000018
:100060002101000021010000210100002101000008
:1000700021010000210100002101000021010000F8
:1000800021010000210100002101000021010000E8
:10009000210100000000000000000000210100001C
:1000A00021010000210100002101000021010000C8
:1000B0000000000010B5064C2378002B07D1054B3B
:1000C000002B02D0044800E000BF0123237010BDC4
:1000D0000000002000000000D4040000084B10B510
:1000E000002B03D00749084800E000BF0748036819
:1000F000002B00D110BD064B002BFBD09847F9E731
:100100000000000004000020D4040000D40400001B
:100110000000000010B5014B984710BDFD01000024
:10012000FEE70000F8B5234A234B9A4209D0224B40
:10013000204A03E011681960043304321F498B42DE
:10014000F8D31F4B02E000221A6004331D4A934289
:10015000F9D31D4AFF211D4B8B439360FD3990233A
:100160005B001B4AD1501B4AD3780325AB430224C2
:100170002343D370D3780C27BB4308263343D37073
:10018000154B987B30229043202210439873997B23
:10019000B943314399739A7BAA4322439A730F4A16
:1001A000516880230B4353600D4B98470D4B984784
:1001B000FEE7C046D404000000000020000000203C
:1001C000000000202000002000ED00E00000000002
:1001D00000700041005000410048004100400041D3
:1001E0006D0400004904000010B50248024B984716
:1001F00010BDC04610E000E05502000010B5104BE5
:100200009847C022D205042353600E4B0E499962D1
:10021000C021090699624224195D012081431955C4
:1002200080218902516191608022D2059A62074A39
:100230009A6251215A5C82435A54054B984710BD2B
:10024000950200000044004104000040020000C08C
:10025000E901000010B5024B1860024B984710BD31
:100260001C000020FD03000010B5044B1C68044B6B
:10027000984701002000034B984710BD1C00002048
:10028000890200000904000003011B1A5A016420BE
:100290005043704710B5084A536802210B4353601E
:1002A000064B9847064B98470220064CA047064B42
:1002B0009847FD20A04710BD004000410D030000FD
:1002C0002D030000CD02000061030000C30709D523
:1002D0000B4B802252009A600A4A5A60084B5B78A6
:1002E000DB09FBD1830709D5054B0222FF329A6057
:1002F000054A5A60024B5B78DB09FBD17047C04668
:10030000000C00400007090001050900064B1A7A9D
:10031000D2B21A725A7AD2B25A729A7AD2B29A7205
:10032000DA7AD2B2DA727047000400400B4B8722AF
:1003300052009A829A6902210A439A611A7F1D31FA
:100340000A401A77054BDB689B07FBD5034A938A63
:1003500080210B439BB293827047C0460008004047
:100360008222D2011C4B5A8002221C4B9A841B4BC6
:10037000DB68DB06FBD51A4A184BDA62194B1B689F
:100380009B0E3F2B20D09B02802292001343134AE6
:10039000936206239384938C5B0718D50F4BDA681E
:1003A000D0231340D02BF9D10C4A938C80210B43DE
:1003B0009BB29384084B5B78DB09FBD1074A9369B6
:1003C00002218B4393617047FC23DB01DFE7034B82
:1003D000DB68DB06FBD5E7E7000C004000080040C7
:1003E000B905010424608000024B034A5A600522CB
:1003F0001A60704710E000E0FFFFFF0010B5014BEE
:10040000984710BDE9030000080E0BE00B4B0C48A9
:1004100058609860094B1B68DB03FBD5094B9C4671
:1004200061441000421ED2B20028EFD1034B596044
:100430009960024B1B68DB03FBD5704710E000E0BE
:10044000FFFFFF00010000FF10B5064B9847802218
:100450009202C023DB05DA61FA208000024B984744
:10046000F5E7C046150100006902000070B50026DE
:100470000C4D0D4C641BA410A64209D1002600F0BF
:1004800019F80A4D0A4C641BA410A64205D170BD90
:10049000B300EB5898470136EEE7B300EB589847A6
:1004A0000136F2E7C0040000C0040000C0040000F0
:1004B000C4040000F8B5C046F8BC08BC9E467047AE
:1004C000DD000000F8B5C046F8BC08BC9E46704789
:0404D000B500000073
:00000001FF
