S01400006865616420747261636B65722E7372656372
S113000070200020250100002101000021010000D2
S113001000000000000000000000000000000000DC
S113002000000000000000000000000021010000AA
S11300300000000000000000210100002101000078
S11300402101000021010000210100002101000024
S113005041090000210100002101000021010000EC
S11300602101000021010000210100002101000004
S113007021010000210100002101000021010000F4
S113008021010000210100002101000021010000E4
S11300902101000000000000000000002101000018
S11300A021010000210100002101000021010000C4
S11300B00000000010B5064C2378002B07D1054B37
S11300C0002B02D0044800E000BF0123237010BDC0
S11300D0000000200000000004180000084B10B5C8
S11300E0002B03D00749084800E000BF0748036815
S11300F0002B00D110BD064B002BFBD09847F9E72D
S1130100000000000400002004180000041800008F
S11301100000000010B5014B984710BD6D040000AD
S1130120FEE70000F8B5234A234B9A4209D0224B3C
S1130130204A03E011681960043304321F498B42DA
S1130140F8D31F4B02E000221A6004331D4A934285
S1130150F9D31D4AFF211D4B8B439360FD39902336
S11301605B001B4AD1501B4AD3780325AB430224BE
S11301702343D370D3780C27BB4308263343D3706F
S1130180154B987B30229043202210439873997B1F
S1130190B943314399739A7BAA4322439A730F4A12
S11301A0516880230B4353600D4B98470D4B984780
S11301B0FEE7C046041800000000002000000020F4
S11301C0000000207000002000ED00E000000000AE
S11301D000700041005000410048004100400041CF
S11301E0BD1600004516000010B5034A034B5A80A3
S11301F0034B984710BDC04605400000000C00406A
S11302004505000030B50F4B4A22995C0125A943EE
S113021001242143C9B299543520195C3B3A9143D6
S113022002221143C9B219544B215A5CAA432243F6
S1130230D2B25A541A5C3C390A4020210A43D2B241
S11302401A5430BD00440041044A136A04210B438C
S11302501362034A034B5A807047C04600040040AF
S113026014400000000C004010B5054B98470022D4
S113027004490548054B9847054B984710BDC046AF
S11302804902000000080042440000201908000050
S11302900502000070B5134B5620195C04229143EB
S11302A01954195C0125A94301242143C9B21954E5
S11302B01B38195C0F26B14302263143C9B21954C5
S11302C057215E5C96435E545A5CAA432243D2B2E1
S11302D05A541A5C48390A4020210A43D2B21A54AB
S11302E070BDC04600440041054A136A20210B43F7
S11302F01362044B044A5A80044A5A807047C04629
S113030000040040000C00401740000013430000AC
S113031010B5044B984704490448054B9847054BCE
S1130320984710BDE902000000140042500000206C
S1130330E105000095020000F0B5DE4657464E4642
S11303404546E0B5C024E40580235B0163602B4B84
S11303502B4A9A622B4A9A624C215A5C04208243AB
S11303605A545A5C0127BA4301263243D2B25A5432
S113037016395A5C0B308246824303208146484634
S11303800243D2B25A54942290468022D20041466B
S113039062500C398C466250A8251B4A5A51C0221F
S11303A0120693465A514231585CB8433043C0B2A6
S11303B05854B520195C524691434A461143C9B278
S11303C01954802109014246A1506246A1500F49A7
S11303D059515A465A51CB215A5CBA433243D2B28C
S11303E05A541A5CBC390A4030210A43D2B21A5416
S11303F03CBC90469946A246AB46F0BD0044004141
S113040000100240000002C0000400400008004048
S1130410044A136A40210B431362034A034B5A8074
S11304207047C0460004004018400000000C004023
S113043010B5044B984704490448054B9847054BAD
S1130440984710BD11040000001800422C00002041
S1130450210600003903000010B50248024B9847FA
S113046010BDC04610E000E0CD04000010B50F4BF5
S11304709847C023DB05802292025A619A600C4B94
S11304808022D2059A620B4A9A6251215A5C012059
S113049082435A54084B9847084B9847084B98474F
S11304A0084B9847084B984710BDC0467908000090
S11304B000440041020000C0E9010000690200009C
S11304C011030000310400005904000010B5024B70
S11304D01860024B984710BD1C000020F91500005D
S11304E010B5044B1C68044B984701002000034BD3
S11304F0984710BD1C0000206D0800000516000080
S113050070B50125002407E00D4AB358002B00D034
S1130510984770BD013AD5B2AC42FAD82B195B109A
S1130520DAB2002AF5D1FF210B40DE000449891913
S113053049688142E8D0EDD20132D4B2ECE7C0463A
S11305402000002010B50023002B03D00748084BDF
S1130550984710BD074AD9005018012464424460EA
S11305600020885001339BB2EEE7C046010500002D
S1130570B10800002000002010B584B01438848B2A
S113058001AB1C8014000292064A5A8003911900A0
S1130590054B9847002802D1200004B010BD040088
S11305A0FAE7C0460080FFFF9D0F000010B584B03D
S11305B01438848B01AB1C8014000292064A5A80C2
S11305C003911900054B9847002802D1200004B07C
S11305D010BD0400FAE7C0460180FFFF9D0F000034
S11305E070B504000D00431E9841C0B25E22074955
S11305F0074B984729002000064B9847002803D151
S1130600054BA361054B636170BDC0460417000030
S1130610650800006D0F0000AD05000079050000BD
S113062070B504000D00002817D0002913D0012054
S113063040220B490B4B98476560201D29000A4B4B
S11306409847002806DB094BA382094B2361094B19
S1130650E360002070BD0020EAE70020E8E7C04620
S11306602017000065080000191200000080FFFF39
S1130670FD060000C106000030B587B004000D007F
S1130680002815D0002911D00120B32209490A4BB2
S113069098472B6803936B680493AB6801930593A5
S11306A0201D03A9054B984707B030BD0020ECE797
S11306B00020EAE720170000650800001514000078
S11306C070B584B004000E001500431E9841C0B2FA
S11306D0A3220749074B984720000C3800230293B4
S11306E00196039501A9044B984704B070BDC04618
S11306F020170000650800007906000070B584B07A
S113070004000E001500431E9841C0B28722074919
S1130710074B984720000C38029600230193039559
S113072001A9044B984704B070BDC04620170000CF
S11307306508000079060000F8B505000E001700F2
S1130740002823D0002923D0002A23D10020F1221D
S11307501149124B98472C0008342000104B98473D
S11307600028F8D00025715D20000E4B984720002A
S11307700B4B98470028FAD00135BD42F3D3200033
S1130780094B98470028FAD02800F8BD0020DEE77E
S11307900020DCE70120DAE73C17000065080000D0
S11307A0490F0000390F0000530F0000F8B5CE4682
S11307B0474680B5051E884691461FD000291FD0A4
S11307C0002A1FD10020862252000F490F4B984760
S11307D000262C00083420000D4B98470028F8D040
S11307E043469F1920000B4B9847387001364E45FD
S11307F0EFD330000CBC90469946F8BD0020E2E7E8
S11308000020E0E70120DEE73C1700006508000057
S11308105F0F0000410F000070B504000D000028B8
S113082014D0002910D0012034220949094B9847DB
S1130830200008302900084B9847002803D1074BB3
S11308406360074B236070BD0020EDE70020EBE7F9
S11308503C170000650800000D0F0000AD07000004
S113086039070000002800D100BE704703011B1A9D
S11308705A0164205043704710B5084A5368022156
S11308800B435360064B9847064B98470220064C8F
S1130890A047064B9847FD20A04710BD00400041EB
S11308A0250A000029150000E50900005D15000077
S11308B0204B5B78DB09FBD11E4B5B78DB09FBD15A
S11308C01C4B1B789B070AD500221A4B1A70194B34
S11308D05B78DB09FBD1174B5B78DB09FBD1012289
S11308E0144B1A70134B5B78DB09FBD1114B5B780B
S11308F0DB09FBD10F4B00229A705A605A619A614E
S1130900DA611A7802210A43D2B21A70094B5B7871
S1130910DB09FBD1084B102280215A50BFF34F8FC3
S1130920BFF36F8F0131FF315A501A60034B1860C7
S1130930002070470018004000E100E0280000207B
S113094030B583B0214B1A69D9680A400192019AE3
S11309501A611F4B1868431E9841C0B2D2221D4928
S11309601D4B984727E00139CDB2AC420DD82A1966
S11309705210D1B2FF231340DB00184A9B5C834220
S113098003D0F0DA0131CCB2EFE701228240019BBF
S1130990934301930198124B9847013840B2431C8A
S11309A002D000250024E0E7084B1A69D9680A4000
S11309B00192019A1A61019B002B05D00198084B02
S11309C09847013840B2EAE703B030BD0018004050
S11309D02800002060170000650800005817000078
S11309E069160000C30709D50B4B802252009A6098
S11309F00A4A5A60084B5B78DB09FBD1830709D5A7
S1130A00054B0222FF329A60054A5A60024B5B781A
S1130A10DB09FBD17047C046000C00400007090009
S1130A2001050900064B1A7AD2B21A725A7AD2B266
S1130A305A729A7AD2B29A72DA7AD2B2DA72704767
S1130A4000040040024B9C466044800AC0B27047D8
S1130A5000F8FFBD10B50B4B98470200002000289A
S1130A6006D0094A09490020094B9847002010BDC7
S1130A7083001B189900074BCB5C9A42F7D00130D6
S1130A80C0B2ECE7450A00003A020000C8170000B3
S1130A90650800007817000070B50400384B9847CB
S1130AA0E369DB071DD483001B189A00354B9B18A0
S1130AB05A681C231A40E3699B07FCD123689B07EF
S1130AC009D5236802218B432360E3699B07FCD18A
S1130AD0E3699B07FCD4012313432360E3699B0769
S1130AE0FCD1E369DB07FCD483001B189A00254B77
S1130AF09B185B682360E3699B07FCD183001B1888
S1130B009A00204B9B189B686360E3695B07FCD1E8
S1130B1083001B189A001B4B9B185B689A040BD428
S1130B20C022D201134207D183001B189A00154B2F
S1130B309B189B89A38115E083001B189A00114917
S1130B4089188A89A389D204D20C5B0B5B031343F3
S1130B50A3818B7B07221A40A3895203DB04DB0C9D
S1130B601343A381074A83001D18A9000D005118DF
S1130B70C97BA1735219127C3023E254002070BD4A
S1130B80550A00007817000010B50D4B9847002354
S1130B90002B08D0E62292000A4900200A4B98470D
S1130BA00120404210BD5A00D218D100074A521801
S1130BB0127D904202D00133DBB2E9E758B2F1E78B
S1130BC0450A0000C81700006508000078170000F7
S1130BD070B505000C0008002D4B9847C0B2E369BE
S1130BE0DB071DD443001B18DA002A4B9B189A69B3
S1130BF01C231A40E3699B07FCD123689B0709D592
S1130C00236802218B432360E3699B07FCD1E369DA
S1130C109B07FCD4012313432360E3699B07FCD1A6
S1130C20E369DB07FCD443001B18DA00194B9B185B
S1130C309B692360E3699B07FCD143001B18DA001E
S1130C40144B9B18DB696360E3695B07FCD44200C7
S1130C501218D1000F4B5B181A6AE260DA7E032384
S1130C601A40AA81023B93429B415B42626A0A4951
S1130C700A409B0313436362E3695B07FCD44300AC
S1130C801818C200034B9B18DB8CEB81002070BD4D
S1130C90890B000078170000FFBFFFFF70B5050047
S1130CA004692368DB0E01261E40431E9841C0B22E
S1130CB08E4A8F498F4B98476B68012B4DD06368E0
S1130CC08D4A13406360E3695B07FCD42B885A05A3
S1130CD04ED56A88D20704D56A888021C9000A43A0
S1130CE06A805B00854A1A40E3695B07FCD4636A47
S1130CF08021C9010B401343802212021343636213
S1130D00E3695B07FCD42E697D4A337EDBB21800AD
S1130D10511E002A02D00A009B07F6D02368DB0E7E
S1130D2001221A40E3695B07FCD4638B9BB2C107C1
S1130D3000D48FE09A072FD5012222766A88802179
S1130D4049010A436A806A886E490A406A80DB075F
S1130D5000D4C6E005204042A2E0002EAFD0626875
S1130D608023DB0213436360E3695B07FCD4ADE7D4
S1130D705B00FF2213406A8801210A401A43E36999
S1130D805B07FCD4636A8021C9010B40134363628F
S1130D90E3695B07FCD4B6E75B071BD46B885B0590
S1130DA034D52A881212520006231A40E3695B07DD
S1130DB0FCD4636A8021C9010B401343F12213431D
S1130DC06362E3695B07FCD46B884F4A13406B8012
S1130DD0002065E06B68002B04DD6B8880225201E3
S1130DE013436B806B881BB2002B06DB6B88454A70
S1130DF013406B800220404252E06268C0239B0291
S1130E0013436360E3695B07FCD4EFE76868002879
S1130E1011D16B881BB2002B04DB6B88394A134059
S1130E206B803DE06268C0239B0213436360E36907
S1130E305B07FCD4F1E7AB681A782823E254E36932
S1130E405B07FCD4AB680133AB606B68013B6B6040
S1130E50002025E0810747D5696800293CD05B075D
S1130E603AD401396960002901D1002A1BD0012933
S1130E7017D06B68002B07D16B881BB2002B1BDBD0
S1130E806B88204A13406B80AA68531CAB60E369EB
S1130E905B07FCD42823E35C137002232376002031
S1130EA070BD002AE5D062688023DB0213436360CF
S1130EB0E3695B07FCD4DCE76368124A13406360B0
S1130EC0E3695B07FCD46268C0239B02134363603D
S1130ED0E3695B07FCD4D3E7022323760220404274
S1130EE0DEE704204042DBE70020D9E79405000058
S1130EF0C817000065080000FFFFFBFFFE070000A5
S1130F00FFFF0000FFFEFFFFFFFBFFFF70B50500C2
S1130F100C00431E9841C0B2B4220449044B9847C4
S1130F202C602000034B984770BDC046C8170000D2
S1130F3065080000990A0000036889B219857047A2
S1130F400368188DC0B270470368187E01231840E7
S1130F50704703681B7E5B080120184070470368D4
S1130F601B7E9B08012018407047000070B50400E8
S1130F700D00431E9841C0B2044A0549054B9847E9
S1130F80256129002000044B984770BD0705000027
S1130F90C817000065080000D10B0000F8B5050073
S1130FA00E000469431E9841C0B2934A9349944F7A
S1130FB0B8472869431E9841C0B2B822D2008F496D
S1130FC0B8473000431E9841C0B28E4A8B49B84797
S1130FD06B88DB0500D50BE1728880235B009C469F
S1130FE01A4372802A00310089C989C26268634643
S1130FF013436360E3695B07FCD42800824B984782
S1131000002800D19DE06B88804A13406B80F8BDB6
S113101005204042A6E073881BB2002B04DB6B88DA
S11310207A4A13406B80F2E76268C0239B02134341
S11310306360E3695B07FCD4F1E753071BD46B8857
S11310405B0534D52A881212520006231A40E3693C
S11310505B07FCD4636A8021C9010B401343F1226E
S113106013436362E3695B07FCD46B88684A1340EB
S11310706B80002065E06B68002B04DD6B888022A8
S1131080520113436B806B881BB2002B06DB6B8809
S11310905E4A13406B800220404252E06268C023E3
S11310A09B0213436360E3695B07FCD4EFE7686862
S11310B0002811D16B881BB2002B04DB6B88534AC8
S11310C013406B803DE06268C0239B02134363605E
S11310D0E3695B07FCD4F1E7AB681A782823E25490
S11310E0E3695B07FCD4AB680133AB606B68013B1D
S11310F06B60002025E0BB0778D56B68002B6DD0B2
S113110052076BD4013B6B60002B01D100294CD0FA
S1131110012B48D06B68002B07D16B881BB2002BC6
S11311204CDB6B88394A13406B80AA68531CAB6054
S1131130E3695B07FCD42823E35C13700223237662
S113114000206B88DB0500D461E72869314A037EFF
S1131150DBB21F00511E002A00D159E70A009B0789
S1131160F5D00020002800D055E72368DB0E0121CC
S11311701940E3695B07FCD4628B92B2FB07BAD5D2
S1131180930700D459E7012323766B888021490112
S11311900B436B806B881D490B406B80D30722D5B2
S11311A005204042CDE70029B4D062688023DB02E9
S11311B013436360E3695B07FCD4ABE76368134ADA
S11311C013406360E3695B07FCD46268C0239B023D
S11311D013436360E3695B07FCD4A2E7022323762D
S11311E002204042ADE704204042AAE70020A8E7DD
S11311F0062040420BE7C046BF050000C8170000A8
S113120065080000C10500009D0C0000FFFEFFFF03
S1131210FFFBFFFFFFFF000070B506000C00080095
S1131220714B98470023002B00D184E00025002E49
S113123000D18DE0002C00D188E001206B4A6C497C
S11312406C4B9847002D00D1CBE0E369DB0721D438
S11312502A786B781B021343AA7812041343EA78A2
S113126012061A431C231A40E3699B07FCD1236826
S11312709B0709D5236802218B432360E3699B07FD
S1131280FCD1E3699B07FCD4012313432360E36986
S11312909B07FCD1E369DB07FCD434602B786A78C4
S11312A012021A43AB781B041A43EB781B06134350
S11312B01C221340082B4DD0002C00D18DE0002DB2
S11312C000D188E001204C4A49494A4B98472B7881
S11312D06A7812021A43AB781B041A43EB781B0694
S11312E01343464A13402360E3699B07FCD12B79DF
S11312F06A7912021A43AB791B041A43EB791B0671
S113130013433F4A13408022920213436360E3690C
S11313105B07FCD12B7B23736A7B3023E2542B794C
S11313205B075CD101233371AA7BEB7B1B02134364
S1131330F380002070BD042802D00133DBB272E7D1
S11313401D01EA182F4D3C35AD1870E7002075E7F4
S1131350002073E7002C3CD0002D38D001202A4A0D
S11313602349244B98472B786A7812021A43AB78A6
S11313701B041A43EB781B061343204A13402360D3
S1131380E3699B07FCD12B796A7912021A43AB7982
S11313901B041A43EB791B0613431C4A13401C4AD3
S11313A013436360E3695B07FCD12B7A6A7A120208
S11313B01A43AB7A1B041A43EB7A1B06134363628A
S11313C06A7B3023E254E369002BFCD1A7E70020B9
S11313D0C5E70020C3E7002075E7002073E7022378
S11313E0A1E70D204042A5E7450A000025090000B9
S11313F0C817000065080000EF080000FCFEFFFFAE
S1131400BF1DFDFF7817000003090000BFDDFDFFCD
S113141040020200F0B5CE46474680B589B0814609
S11314200D0004680B6803934B6804930023059331
S113143006930679002814D0002C10D00120374AD6
S11314403749384B9847E3695B0764D1E3699B07E5
S1131450FCD123689B0720D41420404256E000208E
S1131460EDE70020EBE700222DE048780002474634
S11314700743B84602310391013205924246A26203
S11314805BB2002B35DB002000283ADB0598AB6803
S1131490984202D3069A934233D9237EDBB25A0789
S11314A0E1D5A16A049A002A08D0501C0490117056
S11314B0012E03D9901C0490090A5170069A0192D6
S11314C0013206920122002ADAD10699059A914244
S11314D0D6D34946C888D907D2D50399002906D05E
S11314E0481C039008788046012EBED8C4E7804685
S11314F0C2E701235B426383813323761320404296
S1131500C2E7237E9B07FCD00323237609B00CBCDF
S113151090469946F0BD04204042F7E7850A000052
S1131520C8170000650800000B4B872252009A82FE
S11315309A6902210A439A611A7F1D310A401A7777
S1131540054BDB689B07FBD5034A938A80210B4339
S11315509BB293827047C046000800408222D201A9
S11315601C4B5A8002221C4B9A841B4BDB68DB0603
S1131570FBD51A4A184BDA62194B1B689B0E3F2B9A
S113158020D09B02802292001343134A93620623C5
S11315909384938C5B0718D50F4BDA68D0231340E0
S11315A0D02BF9D10C4A938C80210B439BB29384AA
S11315B0084B5B78DB09FBD1074A936902218B4313
S11315C093617047FC23DB01DFE7034BDB68DB0639
S11315D0FBD5E7E7000C004000080040B905010412
S11315E024608000024B034A5A6005221A60704747
S11315F010E000E0FFFFFF0010B5014B984710BD5D
S1131600E5150000080E0BE00B4B0C485860986081
S1131610094B1B68DB03FBD5094B9C466144100056
S1131620421ED2B20028EFD1034B59609960024B9D
S11316301B68DB03FBD5704710E000E0FFFFFF00F1
S1131640010000FF10B5064B984780229202C02388
S1131650DB05DA61FA208000024B9847F5E7C046C3
S113166015010000E104000010B50023002802D099
S113167000F004F8431C180010BDC0464142084065
S11316801C2101231B04984201D3000C10391B0AAE
S1131690984201D3000A08391B09984201D3000972
S11316A0043902A2105C401A7047C0461B1C1D1D61
S11316B01E1E1E1E1F1F1F1F1F1F1F1F70B500266B
S11316C00C4D0D4C641BA410A64209D1002600F059
S11316D089F80A4D0A4C641BA410A64205D170BDBA
S11316E0B300EB5898470136EEE7B300EB58984740
S11316F00136F2E7F0170000F0170000F0170000C1
S1131700F41700002E2E2F68616C2F7372632F68FC
S1131710616C5F6932635F6D5F73796E632E630022
S11317202E2E2F68616C2F7372632F68616C5F7348
S113173070695F6D5F73796E632E63002E2E2F6860
S1131740616C2F7372632F68616C5F75736172745F
S11317505F73796E632E6300FF000000FFFFFFFFDD
S11317602E2E2F68706C2F6569632F68706C5F650F
S113177069632E6300000000000000000400314093
S1131780000003002BF6000000000000030000002E
S11317901400200000010000E5E600000000D7006E
S11317A00080DC02000000000000000000000000D7
S11317B0000000000C000100000002000000000016
S11317C0FE00FF01040000002E2E2F68706C2F73A2
S11317D06572636F6D2F68706C5F736572636F6D94
S11317E02E630000F8B5C046F8BC08BC9E4670479E
S11317F0DD000000F8B5C046F8BC08BC9E46704742
S1071800B50000002B
S9030000FC
